{
  "contractName": "IntegratedTokenPlatform",
  "abi": [
    {
      "inputs": [
        {
          "internalType": "string",
          "name": "name",
          "type": "string"
        },
        {
          "internalType": "string",
          "name": "symbol",
          "type": "string"
        },
        {
          "internalType": "uint256",
          "name": "initialSupply",
          "type": "uint256"
        },
        {
          "internalType": "uint256",
          "name": "_rate",
          "type": "uint256"
        },
        {
          "internalType": "uint256",
          "name": "_durationInMinutes",
          "type": "uint256"
        }
      ],
      "stateMutability": "nonpayable",
      "type": "constructor"
    },
    {
      "anonymous": false,
      "inputs": [
        {
          "indexed": true,
          "internalType": "address",
          "name": "user",
          "type": "address"
        },
        {
          "indexed": true,
          "internalType": "address",
          "name": "provider",
          "type": "address"
        },
        {
          "indexed": false,
          "internalType": "uint256",
          "name": "amount",
          "type": "uint256"
        }
      ],
      "name": "ApiUsed",
      "type": "event"
    },
    {
      "anonymous": false,
      "inputs": [
        {
          "indexed": true,
          "internalType": "address",
          "name": "owner",
          "type": "address"
        },
        {
          "indexed": true,
          "internalType": "address",
          "name": "spender",
          "type": "address"
        },
        {
          "indexed": false,
          "internalType": "uint256",
          "name": "value",
          "type": "uint256"
        }
      ],
      "name": "Approval",
      "type": "event"
    },
    {
      "anonymous": false,
      "inputs": [
        {
          "indexed": true,
          "internalType": "address",
          "name": "previousOwner",
          "type": "address"
        },
        {
          "indexed": true,
          "internalType": "address",
          "name": "newOwner",
          "type": "address"
        }
      ],
      "name": "OwnershipTransferred",
      "type": "event"
    },
    {
      "anonymous": false,
      "inputs": [
        {
          "indexed": true,
          "internalType": "address",
          "name": "provider",
          "type": "address"
        }
      ],
      "name": "ProviderAdded",
      "type": "event"
    },
    {
      "anonymous": false,
      "inputs": [
        {
          "indexed": true,
          "internalType": "address",
          "name": "provider",
          "type": "address"
        }
      ],
      "name": "ProviderRemoved",
      "type": "event"
    },
    {
      "anonymous": false,
      "inputs": [
        {
          "indexed": true,
          "internalType": "address",
          "name": "burner",
          "type": "address"
        },
        {
          "indexed": false,
          "internalType": "uint256",
          "name": "amount",
          "type": "uint256"
        }
      ],
      "name": "TokensBurned",
      "type": "event"
    },
    {
      "anonymous": false,
      "inputs": [
        {
          "indexed": true,
          "internalType": "address",
          "name": "buyer",
          "type": "address"
        },
        {
          "indexed": false,
          "internalType": "uint256",
          "name": "amount",
          "type": "uint256"
        }
      ],
      "name": "TokensPurchased",
      "type": "event"
    },
    {
      "anonymous": false,
      "inputs": [
        {
          "indexed": true,
          "internalType": "address",
          "name": "from",
          "type": "address"
        },
        {
          "indexed": true,
          "internalType": "address",
          "name": "to",
          "type": "address"
        },
        {
          "indexed": false,
          "internalType": "uint256",
          "name": "value",
          "type": "uint256"
        }
      ],
      "name": "Transfer",
      "type": "event"
    },
    {
      "inputs": [
        {
          "internalType": "address",
          "name": "owner",
          "type": "address"
        },
        {
          "internalType": "address",
          "name": "spender",
          "type": "address"
        }
      ],
      "name": "allowance",
      "outputs": [
        {
          "internalType": "uint256",
          "name": "",
          "type": "uint256"
        }
      ],
      "stateMutability": "view",
      "type": "function",
      "constant": true
    },
    {
      "inputs": [
        {
          "internalType": "address",
          "name": "",
          "type": "address"
        }
      ],
      "name": "apiProviders",
      "outputs": [
        {
          "internalType": "address",
          "name": "providerAddress",
          "type": "address"
        },
        {
          "internalType": "uint256",
          "name": "earnings",
          "type": "uint256"
        }
      ],
      "stateMutability": "view",
      "type": "function",
      "constant": true
    },
    {
      "inputs": [
        {
          "internalType": "address",
          "name": "spender",
          "type": "address"
        },
        {
          "internalType": "uint256",
          "name": "amount",
          "type": "uint256"
        }
      ],
      "name": "approve",
      "outputs": [
        {
          "internalType": "bool",
          "name": "",
          "type": "bool"
        }
      ],
      "stateMutability": "nonpayable",
      "type": "function"
    },
    {
      "inputs": [
        {
          "internalType": "address",
          "name": "account",
          "type": "address"
        }
      ],
      "name": "balanceOf",
      "outputs": [
        {
          "internalType": "uint256",
          "name": "",
          "type": "uint256"
        }
      ],
      "stateMutability": "view",
      "type": "function",
      "constant": true
    },
    {
      "inputs": [],
      "name": "decimals",
      "outputs": [
        {
          "internalType": "uint8",
          "name": "",
          "type": "uint8"
        }
      ],
      "stateMutability": "view",
      "type": "function",
      "constant": true
    },
    {
      "inputs": [
        {
          "internalType": "address",
          "name": "spender",
          "type": "address"
        },
        {
          "internalType": "uint256",
          "name": "subtractedValue",
          "type": "uint256"
        }
      ],
      "name": "decreaseAllowance",
      "outputs": [
        {
          "internalType": "bool",
          "name": "",
          "type": "bool"
        }
      ],
      "stateMutability": "nonpayable",
      "type": "function"
    },
    {
      "inputs": [],
      "name": "endTime",
      "outputs": [
        {
          "internalType": "uint256",
          "name": "",
          "type": "uint256"
        }
      ],
      "stateMutability": "view",
      "type": "function",
      "constant": true
    },
    {
      "inputs": [
        {
          "internalType": "address",
          "name": "spender",
          "type": "address"
        },
        {
          "internalType": "uint256",
          "name": "addedValue",
          "type": "uint256"
        }
      ],
      "name": "increaseAllowance",
      "outputs": [
        {
          "internalType": "bool",
          "name": "",
          "type": "bool"
        }
      ],
      "stateMutability": "nonpayable",
      "type": "function"
    },
    {
      "inputs": [
        {
          "internalType": "address",
          "name": "",
          "type": "address"
        }
      ],
      "name": "isProvider",
      "outputs": [
        {
          "internalType": "bool",
          "name": "",
          "type": "bool"
        }
      ],
      "stateMutability": "view",
      "type": "function",
      "constant": true
    },
    {
      "inputs": [],
      "name": "name",
      "outputs": [
        {
          "internalType": "string",
          "name": "",
          "type": "string"
        }
      ],
      "stateMutability": "view",
      "type": "function",
      "constant": true
    },
    {
      "inputs": [],
      "name": "owner",
      "outputs": [
        {
          "internalType": "address",
          "name": "",
          "type": "address"
        }
      ],
      "stateMutability": "view",
      "type": "function",
      "constant": true
    },
    {
      "inputs": [],
      "name": "rate",
      "outputs": [
        {
          "internalType": "uint256",
          "name": "",
          "type": "uint256"
        }
      ],
      "stateMutability": "view",
      "type": "function",
      "constant": true
    },
    {
      "inputs": [],
      "name": "renounceOwnership",
      "outputs": [],
      "stateMutability": "nonpayable",
      "type": "function"
    },
    {
      "inputs": [],
      "name": "startTime",
      "outputs": [
        {
          "internalType": "uint256",
          "name": "",
          "type": "uint256"
        }
      ],
      "stateMutability": "view",
      "type": "function",
      "constant": true
    },
    {
      "inputs": [],
      "name": "symbol",
      "outputs": [
        {
          "internalType": "string",
          "name": "",
          "type": "string"
        }
      ],
      "stateMutability": "view",
      "type": "function",
      "constant": true
    },
    {
      "inputs": [],
      "name": "totalSupply",
      "outputs": [
        {
          "internalType": "uint256",
          "name": "",
          "type": "uint256"
        }
      ],
      "stateMutability": "view",
      "type": "function",
      "constant": true
    },
    {
      "inputs": [
        {
          "internalType": "address",
          "name": "to",
          "type": "address"
        },
        {
          "internalType": "uint256",
          "name": "amount",
          "type": "uint256"
        }
      ],
      "name": "transfer",
      "outputs": [
        {
          "internalType": "bool",
          "name": "",
          "type": "bool"
        }
      ],
      "stateMutability": "nonpayable",
      "type": "function"
    },
    {
      "inputs": [
        {
          "internalType": "address",
          "name": "from",
          "type": "address"
        },
        {
          "internalType": "address",
          "name": "to",
          "type": "address"
        },
        {
          "internalType": "uint256",
          "name": "amount",
          "type": "uint256"
        }
      ],
      "name": "transferFrom",
      "outputs": [
        {
          "internalType": "bool",
          "name": "",
          "type": "bool"
        }
      ],
      "stateMutability": "nonpayable",
      "type": "function"
    },
    {
      "inputs": [
        {
          "internalType": "address",
          "name": "newOwner",
          "type": "address"
        }
      ],
      "name": "transferOwnership",
      "outputs": [],
      "stateMutability": "nonpayable",
      "type": "function"
    },
    {
      "inputs": [],
      "name": "buyTokens",
      "outputs": [],
      "stateMutability": "payable",
      "type": "function",
      "payable": true
    },
    {
      "inputs": [
        {
          "internalType": "uint256",
          "name": "ethAmount",
          "type": "uint256"
        }
      ],
      "name": "burnTokens",
      "outputs": [],
      "stateMutability": "nonpayable",
      "type": "function"
    },
    {
      "inputs": [
        {
          "internalType": "address",
          "name": "_provider",
          "type": "address"
        }
      ],
      "name": "addApiProvider",
      "outputs": [],
      "stateMutability": "nonpayable",
      "type": "function"
    },
    {
      "inputs": [
        {
          "internalType": "address",
          "name": "_provider",
          "type": "address"
        }
      ],
      "name": "removeApiProvider",
      "outputs": [],
      "stateMutability": "nonpayable",
      "type": "function"
    },
    {
      "inputs": [
        {
          "internalType": "address",
          "name": "_provider",
          "type": "address"
        },
        {
          "internalType": "uint256",
          "name": "_amount",
          "type": "uint256"
        }
      ],
      "name": "useApi",
      "outputs": [],
      "stateMutability": "nonpayable",
      "type": "function"
    },
    {
      "inputs": [],
      "name": "withdrawEarnings",
      "outputs": [],
      "stateMutability": "nonpayable",
      "type": "function"
    },
    {
      "inputs": [],
      "name": "withdrawEth",
      "outputs": [],
      "stateMutability": "nonpayable",
      "type": "function"
    },
    {
      "inputs": [],
      "name": "endFundraising",
      "outputs": [],
      "stateMutability": "nonpayable",
      "type": "function"
    }
  ],
  "bytecode": "0x608060405234801562000010575f80fd5b50604051620034ba380380620034ba8339818101604052810190620000369190620004f5565b84848160039081620000499190620007e5565b5080600490816200005b9190620007e5565b5050506200007e62000072620000f760201b60201c565b620000fe60201b60201c565b620000ba3362000093620001c160201b60201c565b600a620000a1919062000a52565b85620000ae919062000aa2565b620001c960201b60201c565b8160068190555042600781905550603c81620000d7919062000aa2565b600754620000e6919062000aec565b600881905550505050505062000bd0565b5f33905090565b5f60055f9054906101000a900473ffffffffffffffffffffffffffffffffffffffff1690508160055f6101000a81548173ffffffffffffffffffffffffffffffffffffffff021916908373ffffffffffffffffffffffffffffffffffffffff1602179055508173ffffffffffffffffffffffffffffffffffffffff168173ffffffffffffffffffffffffffffffffffffffff167f8be0079c531659141344cd1fd0a4f28419497f9722a3daafe3b4186f6b6457e060405160405180910390a35050565b5f6012905090565b5f73ffffffffffffffffffffffffffffffffffffffff168273ffffffffffffffffffffffffffffffffffffffff16036200023a576040517f08c379a0000000000000000000000000000000000000000000000000000000008152600401620002319062000b84565b60405180910390fd5b6200024d5f83836200032e60201b60201c565b8060025f82825462000260919062000aec565b92505081905550805f808473ffffffffffffffffffffffffffffffffffffffff1673ffffffffffffffffffffffffffffffffffffffff1681526020019081526020015f205f82825401925050819055508173ffffffffffffffffffffffffffffffffffffffff165f73ffffffffffffffffffffffffffffffffffffffff167fddf252ad1be2c89b69c2b068fc378daa952ba7f163c4a11628f55a4df523b3ef836040516200030f919062000bb5565b60405180910390a36200032a5f83836200033360201b60201c565b5050565b505050565b505050565b5f604051905090565b5f80fd5b5f80fd5b5f80fd5b5f80fd5b5f601f19601f8301169050919050565b7f4e487b71000000000000000000000000000000000000000000000000000000005f52604160045260245ffd5b620003998262000351565b810181811067ffffffffffffffff82111715620003bb57620003ba62000361565b5b80604052505050565b5f620003cf62000338565b9050620003dd82826200038e565b919050565b5f67ffffffffffffffff821115620003ff57620003fe62000361565b5b6200040a8262000351565b9050602081019050919050565b5f5b838110156200043657808201518184015260208101905062000419565b5f8484015250505050565b5f620004576200045184620003e2565b620003c4565b9050828152602081018484840111156200047657620004756200034d565b5b6200048384828562000417565b509392505050565b5f82601f830112620004a257620004a162000349565b5b8151620004b484826020860162000441565b91505092915050565b5f819050919050565b620004d181620004bd565b8114620004dc575f80fd5b50565b5f81519050620004ef81620004c6565b92915050565b5f805f805f60a0868803121562000511576200051062000341565b5b5f86015167ffffffffffffffff81111562000531576200053062000345565b5b6200053f888289016200048b565b955050602086015167ffffffffffffffff81111562000563576200056262000345565b5b62000571888289016200048b565b94505060406200058488828901620004df565b93505060606200059788828901620004df565b9250506080620005aa88828901620004df565b9150509295509295909350565b5f81519050919050565b7f4e487b71000000000000000000000000000000000000000000000000000000005f52602260045260245ffd5b5f60028204905060018216806200060657607f821691505b6020821081036200061c576200061b620005c1565b5b50919050565b5f819050815f5260205f209050919050565b5f6020601f8301049050919050565b5f82821b905092915050565b5f60088302620006807fffffffffffffffffffffffffffffffffffffffffffffffffffffffffffffffff8262000643565b6200068c868362000643565b95508019841693508086168417925050509392505050565b5f819050919050565b5f620006cd620006c7620006c184620004bd565b620006a4565b620004bd565b9050919050565b5f819050919050565b620006e883620006ad565b62000700620006f782620006d4565b8484546200064f565b825550505050565b5f90565b6200071662000708565b62000723818484620006dd565b505050565b5b818110156200074a576200073e5f826200070c565b60018101905062000729565b5050565b601f8211156200079957620007638162000622565b6200076e8462000634565b810160208510156200077e578190505b620007966200078d8562000634565b83018262000728565b50505b505050565b5f82821c905092915050565b5f620007bb5f19846008026200079e565b1980831691505092915050565b5f620007d58383620007aa565b9150826002028217905092915050565b620007f082620005b7565b67ffffffffffffffff8111156200080c576200080b62000361565b5b620008188254620005ee565b620008258282856200074e565b5f60209050601f8311600181146200085b575f841562000846578287015190505b620008528582620007c8565b865550620008c1565b601f1984166200086b8662000622565b5f5b8281101562000894578489015182556001820191506020850194506020810190506200086d565b86831015620008b45784890151620008b0601f891682620007aa565b8355505b6001600288020188555050505b505050505050565b7f4e487b71000000000000000000000000000000000000000000000000000000005f52601160045260245ffd5b5f8160011c9050919050565b5f808291508390505b600185111562000953578086048111156200092b576200092a620008c9565b5b60018516156200093b5780820291505b80810290506200094b85620008f6565b94506200090b565b94509492505050565b5f826200096d576001905062000a3f565b816200097c575f905062000a3f565b8160018114620009955760028114620009a057620009d6565b600191505062000a3f565b60ff841115620009b557620009b4620008c9565b5b8360020a915084821115620009cf57620009ce620008c9565b5b5062000a3f565b5060208310610133831016604e8410600b841016171562000a105782820a90508381111562000a0a5762000a09620008c9565b5b62000a3f565b62000a1f848484600162000902565b9250905081840481111562000a395762000a38620008c9565b5b81810290505b9392505050565b5f60ff82169050919050565b5f62000a5e82620004bd565b915062000a6b8362000a46565b925062000a9a7fffffffffffffffffffffffffffffffffffffffffffffffffffffffffffffffff84846200095c565b905092915050565b5f62000aae82620004bd565b915062000abb83620004bd565b925082820262000acb81620004bd565b9150828204841483151762000ae55762000ae4620008c9565b5b5092915050565b5f62000af882620004bd565b915062000b0583620004bd565b925082820190508082111562000b205762000b1f620008c9565b5b92915050565b5f82825260208201905092915050565b7f45524332303a206d696e7420746f20746865207a65726f2061646472657373005f82015250565b5f62000b6c601f8362000b26565b915062000b798262000b36565b602082019050919050565b5f6020820190508181035f83015262000b9d8162000b5e565b9050919050565b62000baf81620004bd565b82525050565b5f60208201905062000bca5f83018462000ba4565b92915050565b6128dc8062000bde5f395ff3fe60806040526004361061019b575f3560e01c806370a08231116100eb578063a457c2d711610089578063d0febe4c11610063578063d0febe4c146105a0578063dd62ed3e146105aa578063ebeca481146105e6578063f2fde38b1461060e5761019b565b8063a457c2d714610512578063a9059cbb1461054e578063b73c6ce91461058a5761019b565b80638cab613d116100c55780638cab613d146104805780638da5cb5b146104a857806395d89b41146104d2578063a0ef91df146104fc5761019b565b806370a0823114610404578063715018a61461044057806378e97925146104565761019b565b8063313ce567116101585780635900626e116101325780635900626e146103625780635ebcc6211461038a5780636b074a07146103a05780636d1b229d146103dc5761019b565b8063313ce567146102d25780633197cbb6146102fc57806339509351146103265761019b565b806306fdde031461019f578063095ea7b3146101c957806318160ddd1461020557806323b872dd1461022f578063266077d01461026b5780632c4e722e146102a8575b5f80fd5b3480156101aa575f80fd5b506101b3610636565b6040516101c09190611b19565b60405180910390f35b3480156101d4575f80fd5b506101ef60048036038101906101ea9190611bca565b6106c6565b6040516101fc9190611c22565b60405180910390f35b348015610210575f80fd5b506102196106e8565b6040516102269190611c4a565b60405180910390f35b34801561023a575f80fd5b5061025560048036038101906102509190611c63565b6106f1565b6040516102629190611c22565b60405180910390f35b348015610276575f80fd5b50610291600480360381019061028c9190611cb3565b61071f565b60405161029f929190611ced565b60405180910390f35b3480156102b3575f80fd5b506102bc61075e565b6040516102c99190611c4a565b60405180910390f35b3480156102dd575f80fd5b506102e6610764565b6040516102f39190611d2f565b60405180910390f35b348015610307575f80fd5b5061031061076c565b60405161031d9190611c4a565b60405180910390f35b348015610331575f80fd5b5061034c60048036038101906103479190611bca565b610772565b6040516103599190611c22565b60405180910390f35b34801561036d575f80fd5b5061038860048036038101906103839190611bca565b6107a8565b005b348015610395575f80fd5b5061039e610951565b005b3480156103ab575f80fd5b506103c660048036038101906103c19190611cb3565b6109be565b6040516103d39190611c22565b60405180910390f35b3480156103e7575f80fd5b5061040260048036038101906103fd9190611d48565b6109db565b005b34801561040f575f80fd5b5061042a60048036038101906104259190611cb3565b610baf565b6040516104379190611c4a565b60405180910390f35b34801561044b575f80fd5b50610454610bf4565b005b348015610461575f80fd5b5061046a610c07565b6040516104779190611c4a565b60405180910390f35b34801561048b575f80fd5b506104a660048036038101906104a19190611cb3565b610c0d565b005b3480156104b3575f80fd5b506104bc610df3565b6040516104c99190611d73565b60405180910390f35b3480156104dd575f80fd5b506104e6610e1b565b6040516104f39190611b19565b60405180910390f35b348015610507575f80fd5b50610510610eab565b005b34801561051d575f80fd5b5061053860048036038101906105339190611bca565b610f00565b6040516105459190611c22565b60405180910390f35b348015610559575f80fd5b50610574600480360381019061056f9190611bca565b610f75565b6040516105819190611c22565b60405180910390f35b348015610595575f80fd5b5061059e610f97565b005b6105a86110f9565b005b3480156105b5575f80fd5b506105d060048036038101906105cb9190611d8c565b611254565b6040516105dd9190611c4a565b60405180910390f35b3480156105f1575f80fd5b5061060c60048036038101906106079190611cb3565b6112d6565b005b348015610619575f80fd5b50610634600480360381019061062f9190611cb3565b611401565b005b60606003805461064590611df7565b80601f016020809104026020016040519081016040528092919081815260200182805461067190611df7565b80156106bc5780601f10610693576101008083540402835291602001916106bc565b820191905f5260205f20905b81548152906001019060200180831161069f57829003601f168201915b5050505050905090565b5f806106d0611483565b90506106dd81858561148a565b600191505092915050565b5f600254905090565b5f806106fb611483565b905061070885828561164d565b6107138585856116d8565b60019150509392505050565b6009602052805f5260405f205f91509050805f015f9054906101000a900473ffffffffffffffffffffffffffffffffffffffff16908060010154905082565b60065481565b5f6012905090565b60085481565b5f8061077c611483565b905061079d81858561078e8589611254565b6107989190611e54565b61148a565b600191505092915050565b600a5f8373ffffffffffffffffffffffffffffffffffffffff1673ffffffffffffffffffffffffffffffffffffffff1681526020019081526020015f205f9054906101000a900460ff16610831576040517f08c379a000000000000000000000000000000000000000000000000000000000815260040161082890611ed1565b60405180910390fd5b8061083b33610baf565b101561087c576040517f08c379a000000000000000000000000000000000000000000000000000000000815260040161087390611f39565b60405180910390fd5b6108873330836116d8565b8060095f8473ffffffffffffffffffffffffffffffffffffffff1673ffffffffffffffffffffffffffffffffffffffff1681526020019081526020015f206001015f8282546108d69190611e54565b925050819055506108e83083836116d8565b8173ffffffffffffffffffffffffffffffffffffffff163373ffffffffffffffffffffffffffffffffffffffff167f4cda1353c9bcf842bcc894b4f3baa4682b93b714c2bc2c1bbab0d797199348f6836040516109459190611c4a565b60405180910390a35050565b610959611944565b60085442101561099e576040517f08c379a000000000000000000000000000000000000000000000000000000000815260040161099590611fa1565b60405180910390fd5b6109a6610df3565b73ffffffffffffffffffffffffffffffffffffffff16ff5b600a602052805f5260405f205f915054906101000a900460ff1681565b6008544211610a1f576040517f08c379a0000000000000000000000000000000000000000000000000000000008152600401610a1690611fa1565b60405180910390fd5b5f8111610a61576040517f08c379a0000000000000000000000000000000000000000000000000000000008152600401610a5890612009565b60405180910390fd5b80471015610aa4576040517f08c379a0000000000000000000000000000000000000000000000000000000008152600401610a9b90612097565b60405180910390fd5b5f60065482610ab391906120b5565b905080610ac6610ac1610df3565b610baf565b1015610b07576040517f08c379a0000000000000000000000000000000000000000000000000000000008152600401610afe90612140565b60405180910390fd5b5f73ffffffffffffffffffffffffffffffffffffffff166108fc8390811502906040515f60405180830381858888f19350505050158015610b4a573d5f803e3d5ffd5b50610b5d610b56610df3565b33836116d8565b3373ffffffffffffffffffffffffffffffffffffffff167ffd38818f5291bf0bb3a2a48aadc06ba8757865d1dabd804585338aab3009dcb682604051610ba39190611c4a565b60405180910390a25050565b5f805f8373ffffffffffffffffffffffffffffffffffffffff1673ffffffffffffffffffffffffffffffffffffffff1681526020019081526020015f20549050919050565b610bfc611944565b610c055f6119c2565b565b60075481565b610c15611944565b600a5f8273ffffffffffffffffffffffffffffffffffffffff1673ffffffffffffffffffffffffffffffffffffffff1681526020019081526020015f205f9054906101000a900460ff1615610c9f576040517f08c379a0000000000000000000000000000000000000000000000000000000008152600401610c96906121a8565b60405180910390fd5b6001600a5f8373ffffffffffffffffffffffffffffffffffffffff1673ffffffffffffffffffffffffffffffffffffffff1681526020019081526020015f205f6101000a81548160ff02191690831515021790555060405180604001604052808273ffffffffffffffffffffffffffffffffffffffff1681526020015f81525060095f8373ffffffffffffffffffffffffffffffffffffffff1673ffffffffffffffffffffffffffffffffffffffff1681526020019081526020015f205f820151815f015f6101000a81548173ffffffffffffffffffffffffffffffffffffffff021916908373ffffffffffffffffffffffffffffffffffffffff160217905550602082015181600101559050508073ffffffffffffffffffffffffffffffffffffffff167fae9c2c6481964847714ce58f65a7f6dcc41d0d8394449bacdf161b5920c4744a60405160405180910390a250565b5f60055f9054906101000a900473ffffffffffffffffffffffffffffffffffffffff16905090565b606060048054610e2a90611df7565b80601f0160208091040260200160405190810160405280929190818152602001828054610e5690611df7565b8015610ea15780601f10610e7857610100808354040283529160200191610ea1565b820191905f5260205f20905b815481529060010190602001808311610e8457829003601f168201915b5050505050905090565b610eb3611944565b610ebb610df3565b73ffffffffffffffffffffffffffffffffffffffff166108fc4790811502906040515f60405180830381858888f19350505050158015610efd573d5f803e3d5ffd5b50565b5f80610f0a611483565b90505f610f178286611254565b905083811015610f5c576040517f08c379a0000000000000000000000000000000000000000000000000000000008152600401610f5390612236565b60405180910390fd5b610f69828686840361148a565b60019250505092915050565b5f80610f7f611483565b9050610f8c8185856116d8565b600191505092915050565b600a5f3373ffffffffffffffffffffffffffffffffffffffff1673ffffffffffffffffffffffffffffffffffffffff1681526020019081526020015f205f9054906101000a900460ff16611020576040517f08c379a00000000000000000000000000000000000000000000000000000000081526004016110179061229e565b60405180910390fd5b5f60095f3373ffffffffffffffffffffffffffffffffffffffff1673ffffffffffffffffffffffffffffffffffffffff1681526020019081526020015f206001015490505f81116110a6576040517f08c379a000000000000000000000000000000000000000000000000000000000815260040161109d90612306565b60405180910390fd5b5f60095f3373ffffffffffffffffffffffffffffffffffffffff1673ffffffffffffffffffffffffffffffffffffffff1681526020019081526020015f20600101819055506110f63033836116d8565b50565b600754421015801561110d57506008544211155b61114c576040517f08c379a00000000000000000000000000000000000000000000000000000000081526004016111439061236e565b60405180910390fd5b5f341161118e576040517f08c379a0000000000000000000000000000000000000000000000000000000008152600401611185906123fc565b60405180910390fd5b5f6006543461119d91906120b5565b9050806111b06111ab610df3565b610baf565b10156111f1576040517f08c379a00000000000000000000000000000000000000000000000000000000081526004016111e890612140565b60405180910390fd5b6112036111fc610df3565b33836116d8565b3373ffffffffffffffffffffffffffffffffffffffff167f8f28852646c20cc973d3a8218f7eefed58c25c909f78f0265af4818c3d4dc271826040516112499190611c4a565b60405180910390a250565b5f60015f8473ffffffffffffffffffffffffffffffffffffffff1673ffffffffffffffffffffffffffffffffffffffff1681526020019081526020015f205f8373ffffffffffffffffffffffffffffffffffffffff1673ffffffffffffffffffffffffffffffffffffffff1681526020019081526020015f2054905092915050565b6112de611944565b600a5f8273ffffffffffffffffffffffffffffffffffffffff1673ffffffffffffffffffffffffffffffffffffffff1681526020019081526020015f205f9054906101000a900460ff16611367576040517f08c379a000000000000000000000000000000000000000000000000000000000815260040161135e90612464565b60405180910390fd5b5f600a5f8373ffffffffffffffffffffffffffffffffffffffff1673ffffffffffffffffffffffffffffffffffffffff1681526020019081526020015f205f6101000a81548160ff0219169083151502179055508073ffffffffffffffffffffffffffffffffffffffff167f1589f8555933761a3cff8aa925061be3b46e2dd43f621322ab611d300f62b1d960405160405180910390a250565b611409611944565b5f73ffffffffffffffffffffffffffffffffffffffff168173ffffffffffffffffffffffffffffffffffffffff1603611477576040517f08c379a000000000000000000000000000000000000000000000000000000000815260040161146e906124f2565b60405180910390fd5b611480816119c2565b50565b5f33905090565b5f73ffffffffffffffffffffffffffffffffffffffff168373ffffffffffffffffffffffffffffffffffffffff16036114f8576040517f08c379a00000000000000000000000000000000000000000000000000000000081526004016114ef90612580565b60405180910390fd5b5f73ffffffffffffffffffffffffffffffffffffffff168273ffffffffffffffffffffffffffffffffffffffff1603611566576040517f08c379a000000000000000000000000000000000000000000000000000000000815260040161155d9061260e565b60405180910390fd5b8060015f8573ffffffffffffffffffffffffffffffffffffffff1673ffffffffffffffffffffffffffffffffffffffff1681526020019081526020015f205f8473ffffffffffffffffffffffffffffffffffffffff1673ffffffffffffffffffffffffffffffffffffffff1681526020019081526020015f20819055508173ffffffffffffffffffffffffffffffffffffffff168373ffffffffffffffffffffffffffffffffffffffff167f8c5be1e5ebec7d5bd14f71427d1e84f3dd0314c0f7b2291e5b200ac8c7c3b925836040516116409190611c4a565b60405180910390a3505050565b5f6116588484611254565b90507fffffffffffffffffffffffffffffffffffffffffffffffffffffffffffffffff81146116d257818110156116c4576040517f08c379a00000000000000000000000000000000000000000000000000000000081526004016116bb90612676565b60405180910390fd5b6116d1848484840361148a565b5b50505050565b5f73ffffffffffffffffffffffffffffffffffffffff168373ffffffffffffffffffffffffffffffffffffffff1603611746576040517f08c379a000000000000000000000000000000000000000000000000000000000815260040161173d90612704565b60405180910390fd5b5f73ffffffffffffffffffffffffffffffffffffffff168273ffffffffffffffffffffffffffffffffffffffff16036117b4576040517f08c379a00000000000000000000000000000000000000000000000000000000081526004016117ab90612792565b60405180910390fd5b6117bf838383611a85565b5f805f8573ffffffffffffffffffffffffffffffffffffffff1673ffffffffffffffffffffffffffffffffffffffff1681526020019081526020015f2054905081811015611842576040517f08c379a000000000000000000000000000000000000000000000000000000000815260040161183990612820565b60405180910390fd5b8181035f808673ffffffffffffffffffffffffffffffffffffffff1673ffffffffffffffffffffffffffffffffffffffff1681526020019081526020015f2081905550815f808573ffffffffffffffffffffffffffffffffffffffff1673ffffffffffffffffffffffffffffffffffffffff1681526020019081526020015f205f82825401925050819055508273ffffffffffffffffffffffffffffffffffffffff168473ffffffffffffffffffffffffffffffffffffffff167fddf252ad1be2c89b69c2b068fc378daa952ba7f163c4a11628f55a4df523b3ef8460405161192b9190611c4a565b60405180910390a361193e848484611a8a565b50505050565b61194c611483565b73ffffffffffffffffffffffffffffffffffffffff1661196a610df3565b73ffffffffffffffffffffffffffffffffffffffff16146119c0576040517f08c379a00000000000000000000000000000000000000000000000000000000081526004016119b790612888565b60405180910390fd5b565b5f60055f9054906101000a900473ffffffffffffffffffffffffffffffffffffffff1690508160055f6101000a81548173ffffffffffffffffffffffffffffffffffffffff021916908373ffffffffffffffffffffffffffffffffffffffff1602179055508173ffffffffffffffffffffffffffffffffffffffff168173ffffffffffffffffffffffffffffffffffffffff167f8be0079c531659141344cd1fd0a4f28419497f9722a3daafe3b4186f6b6457e060405160405180910390a35050565b505050565b505050565b5f81519050919050565b5f82825260208201905092915050565b5f5b83811015611ac6578082015181840152602081019050611aab565b5f8484015250505050565b5f601f19601f8301169050919050565b5f611aeb82611a8f565b611af58185611a99565b9350611b05818560208601611aa9565b611b0e81611ad1565b840191505092915050565b5f6020820190508181035f830152611b318184611ae1565b905092915050565b5f80fd5b5f73ffffffffffffffffffffffffffffffffffffffff82169050919050565b5f611b6682611b3d565b9050919050565b611b7681611b5c565b8114611b80575f80fd5b50565b5f81359050611b9181611b6d565b92915050565b5f819050919050565b611ba981611b97565b8114611bb3575f80fd5b50565b5f81359050611bc481611ba0565b92915050565b5f8060408385031215611be057611bdf611b39565b5b5f611bed85828601611b83565b9250506020611bfe85828601611bb6565b9150509250929050565b5f8115159050919050565b611c1c81611c08565b82525050565b5f602082019050611c355f830184611c13565b92915050565b611c4481611b97565b82525050565b5f602082019050611c5d5f830184611c3b565b92915050565b5f805f60608486031215611c7a57611c79611b39565b5b5f611c8786828701611b83565b9350506020611c9886828701611b83565b9250506040611ca986828701611bb6565b9150509250925092565b5f60208284031215611cc857611cc7611b39565b5b5f611cd584828501611b83565b91505092915050565b611ce781611b5c565b82525050565b5f604082019050611d005f830185611cde565b611d0d6020830184611c3b565b9392505050565b5f60ff82169050919050565b611d2981611d14565b82525050565b5f602082019050611d425f830184611d20565b92915050565b5f60208284031215611d5d57611d5c611b39565b5b5f611d6a84828501611bb6565b91505092915050565b5f602082019050611d865f830184611cde565b92915050565b5f8060408385031215611da257611da1611b39565b5b5f611daf85828601611b83565b9250506020611dc085828601611b83565b9150509250929050565b7f4e487b71000000000000000000000000000000000000000000000000000000005f52602260045260245ffd5b5f6002820490506001821680611e0e57607f821691505b602082108103611e2157611e20611dca565b5b50919050565b7f4e487b71000000000000000000000000000000000000000000000000000000005f52601160045260245ffd5b5f611e5e82611b97565b9150611e6983611b97565b9250828201905080821115611e8157611e80611e27565b5b92915050565b7f496e76616c6964204150492070726f76696465720000000000000000000000005f82015250565b5f611ebb601483611a99565b9150611ec682611e87565b602082019050919050565b5f6020820190508181035f830152611ee881611eaf565b9050919050565b7f496e73756666696369656e742062616c616e63650000000000000000000000005f82015250565b5f611f23601483611a99565b9150611f2e82611eef565b602082019050919050565b5f6020820190508181035f830152611f5081611f17565b9050919050565b7f46756e6472616973696e67206973207374696c6c2061637469766500000000005f82015250565b5f611f8b601b83611a99565b9150611f9682611f57565b602082019050919050565b5f6020820190508181035f830152611fb881611f7f565b9050919050565b7f4d757374206275726e2045544820746f207265636569766520746f6b656e73005f82015250565b5f611ff3601f83611a99565b9150611ffe82611fbf565b602082019050919050565b5f6020820190508181035f83015261202081611fe7565b9050919050565b7f496e73756666696369656e74204554482062616c616e636520696e20636f6e745f8201527f7261637400000000000000000000000000000000000000000000000000000000602082015250565b5f612081602483611a99565b915061208c82612027565b604082019050919050565b5f6020820190508181035f8301526120ae81612075565b9050919050565b5f6120bf82611b97565b91506120ca83611b97565b92508282026120d881611b97565b915082820484148315176120ef576120ee611e27565b5b5092915050565b7f4e6f7420656e6f75676820746f6b656e7320617661696c61626c6500000000005f82015250565b5f61212a601b83611a99565b9150612135826120f6565b602082019050919050565b5f6020820190508181035f8301526121578161211e565b9050919050565b7f416c726561647920612070726f766964657200000000000000000000000000005f82015250565b5f612192601283611a99565b915061219d8261215e565b602082019050919050565b5f6020820190508181035f8301526121bf81612186565b9050919050565b7f45524332303a2064656372656173656420616c6c6f77616e63652062656c6f775f8201527f207a65726f000000000000000000000000000000000000000000000000000000602082015250565b5f612220602583611a99565b915061222b826121c6565b604082019050919050565b5f6020820190508181035f83015261224d81612214565b9050919050565b7f4e6f7420616e204150492070726f7669646572000000000000000000000000005f82015250565b5f612288601383611a99565b915061229382612254565b602082019050919050565b5f6020820190508181035f8301526122b58161227c565b9050919050565b7f4e6f206561726e696e677320746f2077697468647261770000000000000000005f82015250565b5f6122f0601783611a99565b91506122fb826122bc565b602082019050919050565b5f6020820190508181035f83015261231d816122e4565b9050919050565b7f46756e6472616973696e67206973206e6f7420616374697665000000000000005f82015250565b5f612358601983611a99565b915061236382612324565b602082019050919050565b5f6020820190508181035f8301526123858161234c565b9050919050565b7f596f75206d7573742073656e642045544820746f20707572636861736520746f5f8201527f6b656e7300000000000000000000000000000000000000000000000000000000602082015250565b5f6123e6602483611a99565b91506123f18261238c565b604082019050919050565b5f6020820190508181035f830152612413816123da565b9050919050565b7f4e6f7420612070726f76696465720000000000000000000000000000000000005f82015250565b5f61244e600e83611a99565b91506124598261241a565b602082019050919050565b5f6020820190508181035f83015261247b81612442565b9050919050565b7f4f776e61626c653a206e6577206f776e657220697320746865207a65726f20615f8201527f6464726573730000000000000000000000000000000000000000000000000000602082015250565b5f6124dc602683611a99565b91506124e782612482565b604082019050919050565b5f6020820190508181035f830152612509816124d0565b9050919050565b7f45524332303a20617070726f76652066726f6d20746865207a65726f206164645f8201527f7265737300000000000000000000000000000000000000000000000000000000602082015250565b5f61256a602483611a99565b915061257582612510565b604082019050919050565b5f6020820190508181035f8301526125978161255e565b9050919050565b7f45524332303a20617070726f766520746f20746865207a65726f2061646472655f8201527f7373000000000000000000000000000000000000000000000000000000000000602082015250565b5f6125f8602283611a99565b91506126038261259e565b604082019050919050565b5f6020820190508181035f830152612625816125ec565b9050919050565b7f45524332303a20696e73756666696369656e7420616c6c6f77616e63650000005f82015250565b5f612660601d83611a99565b915061266b8261262c565b602082019050919050565b5f6020820190508181035f83015261268d81612654565b9050919050565b7f45524332303a207472616e736665722066726f6d20746865207a65726f2061645f8201527f6472657373000000000000000000000000000000000000000000000000000000602082015250565b5f6126ee602583611a99565b91506126f982612694565b604082019050919050565b5f6020820190508181035f83015261271b816126e2565b9050919050565b7f45524332303a207472616e7366657220746f20746865207a65726f20616464725f8201527f6573730000000000000000000000000000000000000000000000000000000000602082015250565b5f61277c602383611a99565b915061278782612722565b604082019050919050565b5f6020820190508181035f8301526127a981612770565b9050919050565b7f45524332303a207472616e7366657220616d6f756e74206578636565647320625f8201527f616c616e63650000000000000000000000000000000000000000000000000000602082015250565b5f61280a602683611a99565b9150612815826127b0565b604082019050919050565b5f6020820190508181035f830152612837816127fe565b9050919050565b7f4f776e61626c653a2063616c6c6572206973206e6f7420746865206f776e65725f82015250565b5f612872602083611a99565b915061287d8261283e565b602082019050919050565b5f6020820190508181035f83015261289f81612866565b905091905056fea264697066735822122072046ecbd9075a5b490e6b63a97d83a694279008baf6b9ed08c472823aabf2dd64736f6c63430008140033",
  "immutableReferences": {},
  "source": "// SPDX-License-Identifier: MIT\r\npragma solidity ^0.8.20;\r\n\r\nimport \"@openzeppelin/contracts/token/ERC20/ERC20.sol\";\r\nimport \"@openzeppelin/contracts/access/Ownable.sol\";\r\n\r\ncontract IntegratedTokenPlatform is ERC20, Ownable {\r\n    uint256 public rate; // Number of tokens received per ETH\r\n    uint256 public startTime; // Fundraising start time\r\n    uint256 public endTime; // Fundraising end time\r\n\r\n    struct ApiProvider {\r\n        address providerAddress;\r\n        uint256 earnings; // Earnings in tokens\r\n    }\r\n\r\n    mapping(address => ApiProvider) public apiProviders; // API provider information\r\n    mapping(address => bool) public isProvider; // Record if address is a provider\r\n\r\n    event TokensPurchased(address indexed buyer, uint256 amount);\r\n    event TokensBurned(address indexed burner, uint256 amount);\r\n    event ApiUsed(address indexed user, address indexed provider, uint256 amount);\r\n    event ProviderAdded(address indexed provider);\r\n    event ProviderRemoved(address indexed provider);\r\n\r\n    constructor(\r\n        string memory name,\r\n        string memory symbol,\r\n        uint256 initialSupply,\r\n        uint256 _rate,\r\n        uint256 _durationInMinutes\r\n    ) ERC20(name, symbol) Ownable() {\r\n        _mint(msg.sender, initialSupply * (10 ** decimals())); // Initial supply to contract owner\r\n        rate = _rate;\r\n        startTime = block.timestamp;\r\n        endTime = startTime + (_durationInMinutes * 1 minutes);\r\n    }\r\n\r\n    modifier duringFundraising() {\r\n        require(block.timestamp >= startTime && block.timestamp <= endTime, \"Fundraising is not active\");\r\n        _;\r\n    }\r\n\r\n    modifier afterFundraising() {\r\n        require(block.timestamp > endTime, \"Fundraising is still active\");\r\n        _;\r\n    }\r\n\r\n    modifier onlyProvider() {\r\n        require(isProvider[msg.sender], \"Not an API provider\");\r\n        _;\r\n    }\r\n\r\n    function buyTokens() external payable duringFundraising {\r\n        require(msg.value > 0, \"You must send ETH to purchase tokens\");\r\n\r\n        uint256 tokensToBuy = msg.value * rate;\r\n        require(balanceOf(owner()) >= tokensToBuy, \"Not enough tokens available\");\r\n\r\n        _transfer(owner(), msg.sender, tokensToBuy);\r\n        emit TokensPurchased(msg.sender, tokensToBuy);\r\n    }\r\n\r\n    function burnTokens(uint256 ethAmount) external afterFundraising {\r\n        require(ethAmount > 0, \"Must burn ETH to receive tokens\");\r\n        require(address(this).balance >= ethAmount, \"Insufficient ETH balance in contract\");\r\n\r\n        uint256 tokensToReceive = ethAmount * rate;\r\n        require(balanceOf(owner()) >= tokensToReceive, \"Not enough tokens available\");\r\n\r\n        payable(address(0)).transfer(ethAmount); // Burn ETH\r\n        _transfer(owner(), msg.sender, tokensToReceive);\r\n        emit TokensBurned(msg.sender, tokensToReceive);\r\n    }\r\n\r\n    function addApiProvider(address _provider) external onlyOwner {\r\n        require(!isProvider[_provider], \"Already a provider\");\r\n        isProvider[_provider] = true;\r\n        apiProviders[_provider] = ApiProvider(_provider, 0);\r\n        emit ProviderAdded(_provider);\r\n    }\r\n\r\n    function removeApiProvider(address _provider) external onlyOwner {\r\n        require(isProvider[_provider], \"Not a provider\");\r\n        isProvider[_provider] = false;\r\n        emit ProviderRemoved(_provider);\r\n    }\r\n\r\n    function useApi(address _provider, uint256 _amount) external {\r\n        require(isProvider[_provider], \"Invalid API provider\");\r\n        require(balanceOf(msg.sender) >= _amount, \"Insufficient balance\");\r\n\r\n        _transfer(msg.sender, address(this), _amount);\r\n        apiProviders[_provider].earnings += _amount;\r\n        _transfer(address(this), _provider, _amount);\r\n\r\n        emit ApiUsed(msg.sender, _provider, _amount);\r\n    }\r\n\r\n    function withdrawEarnings() external onlyProvider {\r\n        uint256 earnings = apiProviders[msg.sender].earnings;\r\n        require(earnings > 0, \"No earnings to withdraw\");\r\n\r\n        apiProviders[msg.sender].earnings = 0;\r\n        _transfer(address(this), msg.sender, earnings);\r\n    }\r\n\r\n    function withdrawEth() external onlyOwner {\r\n        payable(owner()).transfer(address(this).balance);\r\n    }\r\n\r\n    function endFundraising() external onlyOwner {\r\n        require(block.timestamp >= endTime, \"Fundraising is still active\");\r\n        selfdestruct(payable(owner())); // Destroy contract and send remaining ETH to owner\r\n    }\r\n}",
  "sourcePath": "/mnt/c/Users/90586/Desktop/17pro/hobbit/simple_contract/contracts/llmtoken.sol",
  "compiler": {
    "name": "solc",
    "version": "0.8.20+commit.a1b79de6.Emscripten.clang"
  },
  "schemaVersion": "3.4.16",
  "updatedAt": "2024-11-24T16:08:30.464Z",
  "networkType": "ethereum",
  "devdoc": {
    "events": {
      "Approval(address,address,uint256)": {
        "details": "Emitted when the allowance of a `spender` for an `owner` is set by a call to {approve}. `value` is the new allowance."
      },
      "Transfer(address,address,uint256)": {
        "details": "Emitted when `value` tokens are moved from one account (`from`) to another (`to`). Note that `value` may be zero."
      }
    },
    "kind": "dev",
    "methods": {
      "allowance(address,address)": {
        "details": "See {IERC20-allowance}."
      },
      "approve(address,uint256)": {
        "details": "See {IERC20-approve}. NOTE: If `amount` is the maximum `uint256`, the allowance is not updated on `transferFrom`. This is semantically equivalent to an infinite approval. Requirements: - `spender` cannot be the zero address."
      },
      "balanceOf(address)": {
        "details": "See {IERC20-balanceOf}."
      },
      "decimals()": {
        "details": "Returns the number of decimals used to get its user representation. For example, if `decimals` equals `2`, a balance of `505` tokens should be displayed to a user as `5.05` (`505 / 10 ** 2`). Tokens usually opt for a value of 18, imitating the relationship between Ether and Wei. This is the default value returned by this function, unless it's overridden. NOTE: This information is only used for _display_ purposes: it in no way affects any of the arithmetic of the contract, including {IERC20-balanceOf} and {IERC20-transfer}."
      },
      "decreaseAllowance(address,uint256)": {
        "details": "Atomically decreases the allowance granted to `spender` by the caller. This is an alternative to {approve} that can be used as a mitigation for problems described in {IERC20-approve}. Emits an {Approval} event indicating the updated allowance. Requirements: - `spender` cannot be the zero address. - `spender` must have allowance for the caller of at least `subtractedValue`."
      },
      "increaseAllowance(address,uint256)": {
        "details": "Atomically increases the allowance granted to `spender` by the caller. This is an alternative to {approve} that can be used as a mitigation for problems described in {IERC20-approve}. Emits an {Approval} event indicating the updated allowance. Requirements: - `spender` cannot be the zero address."
      },
      "name()": {
        "details": "Returns the name of the token."
      },
      "owner()": {
        "details": "Returns the address of the current owner."
      },
      "renounceOwnership()": {
        "details": "Leaves the contract without owner. It will not be possible to call `onlyOwner` functions. Can only be called by the current owner. NOTE: Renouncing ownership will leave the contract without an owner, thereby disabling any functionality that is only available to the owner."
      },
      "symbol()": {
        "details": "Returns the symbol of the token, usually a shorter version of the name."
      },
      "totalSupply()": {
        "details": "See {IERC20-totalSupply}."
      },
      "transfer(address,uint256)": {
        "details": "See {IERC20-transfer}. Requirements: - `to` cannot be the zero address. - the caller must have a balance of at least `amount`."
      },
      "transferFrom(address,address,uint256)": {
        "details": "See {IERC20-transferFrom}. Emits an {Approval} event indicating the updated allowance. This is not required by the EIP. See the note at the beginning of {ERC20}. NOTE: Does not update the allowance if the current allowance is the maximum `uint256`. Requirements: - `from` and `to` cannot be the zero address. - `from` must have a balance of at least `amount`. - the caller must have allowance for ``from``'s tokens of at least `amount`."
      },
      "transferOwnership(address)": {
        "details": "Transfers ownership of the contract to a new account (`newOwner`). Can only be called by the current owner."
      }
    },
    "version": 1
  },
  "userdoc": {
    "kind": "user",
    "methods": {},
    "version": 1
  }
}