{
  "contractName": "SimpleToken",
  "abi": [
    {
      "inputs": [
        {
          "internalType": "uint256",
          "name": "_initialSupply",
          "type": "uint256"
        }
      ],
      "stateMutability": "nonpayable",
      "type": "constructor"
    },
    {
      "anonymous": false,
      "inputs": [
        {
          "indexed": true,
          "internalType": "address",
          "name": "owner",
          "type": "address"
        },
        {
          "indexed": true,
          "internalType": "address",
          "name": "spender",
          "type": "address"
        },
        {
          "indexed": false,
          "internalType": "uint256",
          "name": "value",
          "type": "uint256"
        }
      ],
      "name": "Approval",
      "type": "event"
    },
    {
      "anonymous": false,
      "inputs": [
        {
          "indexed": true,
          "internalType": "address",
          "name": "from",
          "type": "address"
        },
        {
          "indexed": true,
          "internalType": "address",
          "name": "to",
          "type": "address"
        },
        {
          "indexed": false,
          "internalType": "uint256",
          "name": "value",
          "type": "uint256"
        }
      ],
      "name": "Transfer",
      "type": "event"
    },
    {
      "inputs": [
        {
          "internalType": "address",
          "name": "",
          "type": "address"
        },
        {
          "internalType": "address",
          "name": "",
          "type": "address"
        }
      ],
      "name": "allowance",
      "outputs": [
        {
          "internalType": "uint256",
          "name": "",
          "type": "uint256"
        }
      ],
      "stateMutability": "view",
      "type": "function",
      "constant": true
    },
    {
      "inputs": [
        {
          "internalType": "address",
          "name": "",
          "type": "address"
        }
      ],
      "name": "balanceOf",
      "outputs": [
        {
          "internalType": "uint256",
          "name": "",
          "type": "uint256"
        }
      ],
      "stateMutability": "view",
      "type": "function",
      "constant": true
    },
    {
      "inputs": [],
      "name": "decimals",
      "outputs": [
        {
          "internalType": "uint8",
          "name": "",
          "type": "uint8"
        }
      ],
      "stateMutability": "view",
      "type": "function",
      "constant": true
    },
    {
      "inputs": [],
      "name": "name",
      "outputs": [
        {
          "internalType": "string",
          "name": "",
          "type": "string"
        }
      ],
      "stateMutability": "view",
      "type": "function",
      "constant": true
    },
    {
      "inputs": [],
      "name": "symbol",
      "outputs": [
        {
          "internalType": "string",
          "name": "",
          "type": "string"
        }
      ],
      "stateMutability": "view",
      "type": "function",
      "constant": true
    },
    {
      "inputs": [],
      "name": "totalSupply",
      "outputs": [
        {
          "internalType": "uint256",
          "name": "",
          "type": "uint256"
        }
      ],
      "stateMutability": "view",
      "type": "function",
      "constant": true
    },
    {
      "inputs": [
        {
          "internalType": "address",
          "name": "_to",
          "type": "address"
        },
        {
          "internalType": "uint256",
          "name": "_value",
          "type": "uint256"
        }
      ],
      "name": "transfer",
      "outputs": [
        {
          "internalType": "bool",
          "name": "success",
          "type": "bool"
        }
      ],
      "stateMutability": "nonpayable",
      "type": "function"
    },
    {
      "inputs": [
        {
          "internalType": "address",
          "name": "_spender",
          "type": "address"
        },
        {
          "internalType": "uint256",
          "name": "_value",
          "type": "uint256"
        }
      ],
      "name": "approve",
      "outputs": [
        {
          "internalType": "bool",
          "name": "success",
          "type": "bool"
        }
      ],
      "stateMutability": "nonpayable",
      "type": "function"
    },
    {
      "inputs": [
        {
          "internalType": "address",
          "name": "_from",
          "type": "address"
        },
        {
          "internalType": "address",
          "name": "_to",
          "type": "address"
        },
        {
          "internalType": "uint256",
          "name": "_value",
          "type": "uint256"
        }
      ],
      "name": "transferFrom",
      "outputs": [
        {
          "internalType": "bool",
          "name": "success",
          "type": "bool"
        }
      ],
      "stateMutability": "nonpayable",
      "type": "function"
    },
    {
      "inputs": [
        {
          "internalType": "uint256",
          "name": "_number",
          "type": "uint256"
        }
      ],
      "name": "setNumber",
      "outputs": [],
      "stateMutability": "nonpayable",
      "type": "function"
    },
    {
      "inputs": [],
      "name": "getNumber",
      "outputs": [
        {
          "internalType": "uint256",
          "name": "",
          "type": "uint256"
        }
      ],
      "stateMutability": "view",
      "type": "function",
      "constant": true
    },
    {
      "inputs": [
        {
          "internalType": "address",
          "name": "_owner",
          "type": "address"
        }
      ],
      "name": "getBalance",
      "outputs": [
        {
          "internalType": "uint256",
          "name": "",
          "type": "uint256"
        }
      ],
      "stateMutability": "view",
      "type": "function",
      "constant": true
    }
  ],
  "bytecode": "0x60806040526040518060400160405280600b81526020017f53696d706c65546f6b656e000000000000000000000000000000000000000000815250600090805190602001906200005192919062000170565b506040518060400160405280600381526020017f53544b0000000000000000000000000000000000000000000000000000000000815250600190805190602001906200009f92919062000170565b506012600260006101000a81548160ff021916908360ff160217905550348015620000c957600080fd5b506040516200168b3803806200168b8339818101604052810190620000ef919062000237565b600260009054906101000a900460ff1660ff16600a620001109190620002be565b816200011d9190620003fb565b600381905550600354600460003373ffffffffffffffffffffffffffffffffffffffff1673ffffffffffffffffffffffffffffffffffffffff168152602001908152602001600020819055505062000521565b8280546200017e9062000466565b90600052602060002090601f016020900481019282620001a25760008555620001ee565b82601f10620001bd57805160ff1916838001178555620001ee565b82800160010185558215620001ee579182015b82811115620001ed578251825591602001919060010190620001d0565b5b509050620001fd919062000201565b5090565b5b808211156200021c57600081600090555060010162000202565b5090565b600081519050620002318162000507565b92915050565b6000602082840312156200024a57600080fd5b60006200025a8482850162000220565b91505092915050565b6000808291508390505b6001851115620002b5578086048111156200028d576200028c6200049c565b5b60018516156200029d5780820291505b8081029050620002ad85620004fa565b94506200026d565b94509492505050565b6000620002cb826200045c565b9150620002d8836200045c565b9250620003077fffffffffffffffffffffffffffffffffffffffffffffffffffffffffffffffff84846200030f565b905092915050565b600082620003215760019050620003f4565b81620003315760009050620003f4565b81600181146200034a576002811462000355576200038b565b6001915050620003f4565b60ff8411156200036a57620003696200049c565b5b8360020a9150848211156200038457620003836200049c565b5b50620003f4565b5060208310610133831016604e8410600b8410161715620003c55782820a905083811115620003bf57620003be6200049c565b5b620003f4565b620003d4848484600162000263565b92509050818404811115620003ee57620003ed6200049c565b5b81810290505b9392505050565b600062000408826200045c565b915062000415836200045c565b9250817fffffffffffffffffffffffffffffffffffffffffffffffffffffffffffffffff04831182151516156200045157620004506200049c565b5b828202905092915050565b6000819050919050565b600060028204905060018216806200047f57607f821691505b60208210811415620004965762000495620004cb565b5b50919050565b7f4e487b7100000000000000000000000000000000000000000000000000000000600052601160045260246000fd5b7f4e487b7100000000000000000000000000000000000000000000000000000000600052602260045260246000fd5b60008160011c9050919050565b62000512816200045c565b81146200051e57600080fd5b50565b61115a80620005316000396000f3fe608060405234801561001057600080fd5b50600436106100b45760003560e01c806370a082311161007157806370a082311461018f57806395d89b41146101bf578063a9059cbb146101dd578063dd62ed3e1461020d578063f2c9ecd81461023d578063f8b2cb4f1461025b576100b4565b806306fdde03146100b9578063095ea7b3146100d757806318160ddd1461010757806323b872dd14610125578063313ce567146101555780633fb5c1cb14610173575b600080fd5b6100c161028b565b6040516100ce9190610e2f565b60405180910390f35b6100f160048036038101906100ec9190610c09565b610319565b6040516100fe9190610e14565b60405180910390f35b61010f61040b565b60405161011c9190610ef1565b60405180910390f35b61013f600480360381019061013a9190610bba565b610411565b60405161014c9190610e14565b60405180910390f35b61015d6107e2565b60405161016a9190610f0c565b60405180910390f35b61018d60048036038101906101889190610c45565b6107f5565b005b6101a960048036038101906101a49190610b55565b6107ff565b6040516101b69190610ef1565b60405180910390f35b6101c7610817565b6040516101d49190610e2f565b60405180910390f35b6101f760048036038101906101f29190610c09565b6108a5565b6040516102049190610e14565b60405180910390f35b61022760048036038101906102229190610b7e565b610ab3565b6040516102349190610ef1565b60405180910390f35b610245610ad8565b6040516102529190610ef1565b60405180910390f35b61027560048036038101906102709190610b55565b610ae2565b6040516102829190610ef1565b60405180910390f35b6000805461029890611055565b80601f01602080910402602001604051908101604052809291908181526020018280546102c490611055565b80156103115780601f106102e657610100808354040283529160200191610311565b820191906000526020600020905b8154815290600101906020018083116102f457829003601f168201915b505050505081565b600081600560003373ffffffffffffffffffffffffffffffffffffffff1673ffffffffffffffffffffffffffffffffffffffff16815260200190815260200160002060008573ffffffffffffffffffffffffffffffffffffffff1673ffffffffffffffffffffffffffffffffffffffff168152602001908152602001600020819055508273ffffffffffffffffffffffffffffffffffffffff163373ffffffffffffffffffffffffffffffffffffffff167f8c5be1e5ebec7d5bd14f71427d1e84f3dd0314c0f7b2291e5b200ac8c7c3b925846040516103f99190610ef1565b60405180910390a36001905092915050565b60035481565b60008073ffffffffffffffffffffffffffffffffffffffff168473ffffffffffffffffffffffffffffffffffffffff161415610482576040517f08c379a000000000000000000000000000000000000000000000000000000000815260040161047990610eb1565b60405180910390fd5b600073ffffffffffffffffffffffffffffffffffffffff168373ffffffffffffffffffffffffffffffffffffffff1614156104f2576040517f08c379a00000000000000000000000000000000000000000000000000000000081526004016104e990610ed1565b60405180910390fd5b81600460008673ffffffffffffffffffffffffffffffffffffffff1673ffffffffffffffffffffffffffffffffffffffff168152602001908152602001600020541015610574576040517f08c379a000000000000000000000000000000000000000000000000000000000815260040161056b90610e91565b60405180910390fd5b81600560008673ffffffffffffffffffffffffffffffffffffffff1673ffffffffffffffffffffffffffffffffffffffff16815260200190815260200160002060003373ffffffffffffffffffffffffffffffffffffffff1673ffffffffffffffffffffffffffffffffffffffff168152602001908152602001600020541015610633576040517f08c379a000000000000000000000000000000000000000000000000000000000815260040161062a90610e51565b60405180910390fd5b81600460008673ffffffffffffffffffffffffffffffffffffffff1673ffffffffffffffffffffffffffffffffffffffff16815260200190815260200160002060008282546106829190610f99565b9250508190555081600460008573ffffffffffffffffffffffffffffffffffffffff1673ffffffffffffffffffffffffffffffffffffffff16815260200190815260200160002060008282546106d89190610f43565b9250508190555081600560008673ffffffffffffffffffffffffffffffffffffffff1673ffffffffffffffffffffffffffffffffffffffff16815260200190815260200160002060003373ffffffffffffffffffffffffffffffffffffffff1673ffffffffffffffffffffffffffffffffffffffff168152602001908152602001600020600082825461076b9190610f99565b925050819055508273ffffffffffffffffffffffffffffffffffffffff168473ffffffffffffffffffffffffffffffffffffffff167fddf252ad1be2c89b69c2b068fc378daa952ba7f163c4a11628f55a4df523b3ef846040516107cf9190610ef1565b60405180910390a3600190509392505050565b600260009054906101000a900460ff1681565b8060068190555050565b60046020528060005260406000206000915090505481565b6001805461082490611055565b80601f016020809104026020016040519081016040528092919081815260200182805461085090611055565b801561089d5780601f106108725761010080835404028352916020019161089d565b820191906000526020600020905b81548152906001019060200180831161088057829003601f168201915b505050505081565b60008073ffffffffffffffffffffffffffffffffffffffff168373ffffffffffffffffffffffffffffffffffffffff161415610916576040517f08c379a000000000000000000000000000000000000000000000000000000000815260040161090d90610e71565b60405180910390fd5b81600460003373ffffffffffffffffffffffffffffffffffffffff1673ffffffffffffffffffffffffffffffffffffffff168152602001908152602001600020541015610998576040517f08c379a000000000000000000000000000000000000000000000000000000000815260040161098f90610e91565b60405180910390fd5b81600460003373ffffffffffffffffffffffffffffffffffffffff1673ffffffffffffffffffffffffffffffffffffffff16815260200190815260200160002060008282546109e79190610f99565b9250508190555081600460008573ffffffffffffffffffffffffffffffffffffffff1673ffffffffffffffffffffffffffffffffffffffff1681526020019081526020016000206000828254610a3d9190610f43565b925050819055508273ffffffffffffffffffffffffffffffffffffffff163373ffffffffffffffffffffffffffffffffffffffff167fddf252ad1be2c89b69c2b068fc378daa952ba7f163c4a11628f55a4df523b3ef84604051610aa19190610ef1565b60405180910390a36001905092915050565b6005602052816000526040600020602052806000526040600020600091509150505481565b6000600654905090565b6000600460008373ffffffffffffffffffffffffffffffffffffffff1673ffffffffffffffffffffffffffffffffffffffff168152602001908152602001600020549050919050565b600081359050610b3a816110f6565b92915050565b600081359050610b4f8161110d565b92915050565b600060208284031215610b6757600080fd5b6000610b7584828501610b2b565b91505092915050565b60008060408385031215610b9157600080fd5b6000610b9f85828601610b2b565b9250506020610bb085828601610b2b565b9150509250929050565b600080600060608486031215610bcf57600080fd5b6000610bdd86828701610b2b565b9350506020610bee86828701610b2b565b9250506040610bff86828701610b40565b9150509250925092565b60008060408385031215610c1c57600080fd5b6000610c2a85828601610b2b565b9250506020610c3b85828601610b40565b9150509250929050565b600060208284031215610c5757600080fd5b6000610c6584828501610b40565b91505092915050565b610c7781610fdf565b82525050565b6000610c8882610f27565b610c928185610f32565b9350610ca2818560208601611022565b610cab816110e5565b840191505092915050565b6000610cc3601283610f32565b91507f416c6c6f77616e636520657863656564656400000000000000000000000000006000830152602082019050919050565b6000610d03600f83610f32565b91507f496e76616c6964206164647265737300000000000000000000000000000000006000830152602082019050919050565b6000610d43601483610f32565b91507f496e73756666696369656e742062616c616e63650000000000000000000000006000830152602082019050919050565b6000610d83601483610f32565b91507f496e76616c69642066726f6d20616464726573730000000000000000000000006000830152602082019050919050565b6000610dc3601283610f32565b91507f496e76616c696420746f206164647265737300000000000000000000000000006000830152602082019050919050565b610dff8161100b565b82525050565b610e0e81611015565b82525050565b6000602082019050610e296000830184610c6e565b92915050565b60006020820190508181036000830152610e498184610c7d565b905092915050565b60006020820190508181036000830152610e6a81610cb6565b9050919050565b60006020820190508181036000830152610e8a81610cf6565b9050919050565b60006020820190508181036000830152610eaa81610d36565b9050919050565b60006020820190508181036000830152610eca81610d76565b9050919050565b60006020820190508181036000830152610eea81610db6565b9050919050565b6000602082019050610f066000830184610df6565b92915050565b6000602082019050610f216000830184610e05565b92915050565b600081519050919050565b600082825260208201905092915050565b6000610f4e8261100b565b9150610f598361100b565b9250827fffffffffffffffffffffffffffffffffffffffffffffffffffffffffffffffff03821115610f8e57610f8d611087565b5b828201905092915050565b6000610fa48261100b565b9150610faf8361100b565b925082821015610fc257610fc1611087565b5b828203905092915050565b6000610fd882610feb565b9050919050565b60008115159050919050565b600073ffffffffffffffffffffffffffffffffffffffff82169050919050565b6000819050919050565b600060ff82169050919050565b60005b83811015611040578082015181840152602081019050611025565b8381111561104f576000848401525b50505050565b6000600282049050600182168061106d57607f821691505b60208210811415611081576110806110b6565b5b50919050565b7f4e487b7100000000000000000000000000000000000000000000000000000000600052601160045260246000fd5b7f4e487b7100000000000000000000000000000000000000000000000000000000600052602260045260246000fd5b6000601f19601f8301169050919050565b6110ff81610fcd565b811461110a57600080fd5b50565b6111168161100b565b811461112157600080fd5b5056fea2646970667358221220c020ab0b146aa72e2d05a79c964a50adc83f8fd93c3753a5816016e942b211f164736f6c63430008000033",
  "immutableReferences": {},
  "source": "// SPDX-License-Identifier: MIT\r\npragma solidity ^0.8.0;\r\n\r\ncontract SimpleToken {\r\n    string public name = \"SimpleToken\"; // \r\n    string public symbol = \"STK\";        // \r\n    uint8 public decimals = 18;           // \r\n    uint256 public totalSupply;           // \r\n\r\n    // \r\n    mapping(address => uint256) public balanceOf;\r\n    // \r\n    mapping(address => mapping(address => uint256)) public allowance;\r\n\r\n    // \r\n    event Transfer(address indexed from, address indexed to, uint256 value);\r\n    event Approval(address indexed owner, address indexed spender, uint256 value);\r\n\r\n    constructor(uint256 _initialSupply) {\r\n        totalSupply = _initialSupply * (10 ** uint256(decimals)); // \r\n        balanceOf[msg.sender] = totalSupply; // \r\n    }\r\n\r\n    // \r\n    function transfer(address _to, uint256 _value) public returns (bool success) {\r\n        require(_to != address(0), \"Invalid address\");\r\n        require(balanceOf[msg.sender] >= _value, \"Insufficient balance\");\r\n        balanceOf[msg.sender] -= _value;\r\n        balanceOf[_to] += _value;\r\n        emit Transfer(msg.sender, _to, _value);\r\n        return true;\r\n    }\r\n\r\n    // \r\n    function approve(address _spender, uint256 _value) public returns (bool success) {\r\n        allowance[msg.sender][_spender] = _value;\r\n        emit Approval(msg.sender, _spender, _value);\r\n        return true;\r\n    }\r\n\r\n    // \r\n    function transferFrom(address _from, address _to, uint256 _value) public returns (bool success) {\r\n        require(_from != address(0), \"Invalid from address\");\r\n        require(_to != address(0), \"Invalid to address\");\r\n        require(balanceOf[_from] >= _value, \"Insufficient balance\");\r\n        require(allowance[_from][msg.sender] >= _value, \"Allowance exceeded\");\r\n\r\n        balanceOf[_from] -= _value;\r\n        balanceOf[_to] += _value;\r\n        allowance[_from][msg.sender] -= _value;\r\n        emit Transfer(_from, _to, _value);\r\n        return true;\r\n    }\r\n\r\n    uint256 private number;\r\n\r\n    // \r\n    function setNumber(uint256 _number) public {\r\n        number = _number;\r\n    }\r\n\r\n    // \r\n    function getNumber() public view returns (uint256) {\r\n        return number;\r\n    }    \r\n    \r\n    // \r\n    function getBalance(address _owner) public view returns (uint256) {\r\n        return balanceOf[_owner];\r\n    }\r\n}",
  "sourcePath": "/mnt/c/Users/90586/Desktop/hobbit/hobbit/simple contract/contracts/simpletoken.sol",
  "compiler": {
    "name": "solc",
    "version": "0.8.0+commit.c7dfd78e.Emscripten.clang"
  },
  "schemaVersion": "3.4.16",
  "updatedAt": "2024-11-24T09:53:23.815Z",
  "networkType": "ethereum",
  "devdoc": {
    "kind": "dev",
    "methods": {},
    "version": 1
  },
  "userdoc": {
    "kind": "user",
    "methods": {},
    "version": 1
  }
}